{
  "address": "0xF7e022B9838d8Bac87e0F63eF9Ae82C4223bF970",
  "abi": [
    {
      "inputs": [
        {
          "internalType": "uint256",
          "name": "initialSupply",
          "type": "uint256"
        }
      ],
      "stateMutability": "nonpayable",
      "type": "constructor"
    },
    {
      "anonymous": false,
      "inputs": [
        {
          "indexed": true,
          "internalType": "address",
          "name": "owner",
          "type": "address"
        },
        {
          "indexed": true,
          "internalType": "address",
          "name": "spender",
          "type": "address"
        },
        {
          "indexed": false,
          "internalType": "uint256",
          "name": "value",
          "type": "uint256"
        }
      ],
      "name": "Approval",
      "type": "event"
    },
    {
      "anonymous": false,
      "inputs": [
        {
          "indexed": true,
          "internalType": "address",
          "name": "from",
          "type": "address"
        },
        {
          "indexed": true,
          "internalType": "address",
          "name": "to",
          "type": "address"
        },
        {
          "indexed": false,
          "internalType": "uint256",
          "name": "value",
          "type": "uint256"
        }
      ],
      "name": "Transfer",
      "type": "event"
    },
    {
      "inputs": [
        {
          "internalType": "address",
          "name": "owner",
          "type": "address"
        },
        {
          "internalType": "address",
          "name": "spender",
          "type": "address"
        }
      ],
      "name": "allowance",
      "outputs": [
        {
          "internalType": "uint256",
          "name": "",
          "type": "uint256"
        }
      ],
      "stateMutability": "view",
      "type": "function"
    },
    {
      "inputs": [
        {
          "internalType": "address",
          "name": "spender",
          "type": "address"
        },
        {
          "internalType": "uint256",
          "name": "amount",
          "type": "uint256"
        }
      ],
      "name": "approve",
      "outputs": [
        {
          "internalType": "bool",
          "name": "",
          "type": "bool"
        }
      ],
      "stateMutability": "nonpayable",
      "type": "function"
    },
    {
      "inputs": [
        {
          "internalType": "address",
          "name": "account",
          "type": "address"
        }
      ],
      "name": "balanceOf",
      "outputs": [
        {
          "internalType": "uint256",
          "name": "",
          "type": "uint256"
        }
      ],
      "stateMutability": "view",
      "type": "function"
    },
    {
      "inputs": [],
      "name": "decimals",
      "outputs": [
        {
          "internalType": "uint8",
          "name": "",
          "type": "uint8"
        }
      ],
      "stateMutability": "view",
      "type": "function"
    },
    {
      "inputs": [
        {
          "internalType": "address",
          "name": "spender",
          "type": "address"
        },
        {
          "internalType": "uint256",
          "name": "subtractedValue",
          "type": "uint256"
        }
      ],
      "name": "decreaseAllowance",
      "outputs": [
        {
          "internalType": "bool",
          "name": "",
          "type": "bool"
        }
      ],
      "stateMutability": "nonpayable",
      "type": "function"
    },
    {
      "inputs": [],
      "name": "getInitialSupply",
      "outputs": [
        {
          "internalType": "uint256",
          "name": "",
          "type": "uint256"
        }
      ],
      "stateMutability": "view",
      "type": "function"
    },
    {
      "inputs": [
        {
          "internalType": "address",
          "name": "spender",
          "type": "address"
        },
        {
          "internalType": "uint256",
          "name": "addedValue",
          "type": "uint256"
        }
      ],
      "name": "increaseAllowance",
      "outputs": [
        {
          "internalType": "bool",
          "name": "",
          "type": "bool"
        }
      ],
      "stateMutability": "nonpayable",
      "type": "function"
    },
    {
      "inputs": [],
      "name": "name",
      "outputs": [
        {
          "internalType": "string",
          "name": "",
          "type": "string"
        }
      ],
      "stateMutability": "view",
      "type": "function"
    },
    {
      "inputs": [],
      "name": "symbol",
      "outputs": [
        {
          "internalType": "string",
          "name": "",
          "type": "string"
        }
      ],
      "stateMutability": "view",
      "type": "function"
    },
    {
      "inputs": [],
      "name": "totalSupply",
      "outputs": [
        {
          "internalType": "uint256",
          "name": "",
          "type": "uint256"
        }
      ],
      "stateMutability": "view",
      "type": "function"
    },
    {
      "inputs": [
        {
          "internalType": "address",
          "name": "to",
          "type": "address"
        },
        {
          "internalType": "uint256",
          "name": "amount",
          "type": "uint256"
        }
      ],
      "name": "transfer",
      "outputs": [
        {
          "internalType": "bool",
          "name": "",
          "type": "bool"
        }
      ],
      "stateMutability": "nonpayable",
      "type": "function"
    },
    {
      "inputs": [
        {
          "internalType": "address",
          "name": "from",
          "type": "address"
        },
        {
          "internalType": "address",
          "name": "to",
          "type": "address"
        },
        {
          "internalType": "uint256",
          "name": "amount",
          "type": "uint256"
        }
      ],
      "name": "transferFrom",
      "outputs": [
        {
          "internalType": "bool",
          "name": "",
          "type": "bool"
        }
      ],
      "stateMutability": "nonpayable",
      "type": "function"
    }
  ],
  "transactionHash": "0xbfe483a9e9b0c815c41e68942ee69b433b4f5b4f448dad4f0ff437cb57ce6671",
  "args": [
    "50000000000000000000"
  ],
  "numDeployments": 2,
  "solcInputHash": "02ada52f96cfa4721ab7df227eaf312a",
  "bytecode": "0x60a06040523480156200001157600080fd5b506040516200180038038062001800833981810160405281019062000037919062000337565b6040518060400160405280600b81526020017f4d616e75656c49734761790000000000000000000000000000000000000000008152506040518060400160405280600381526020017f4d494700000000000000000000000000000000000000000000000000000000008152508160039080519060200190620000bb92919062000270565b508060049080519060200190620000d492919062000270565b5050508060808181525050620000f13382620000f860201b60201c565b5062000534565b600073ffffffffffffffffffffffffffffffffffffffff168273ffffffffffffffffffffffffffffffffffffffff1614156200016b576040517f08c379a00000000000000000000000000000000000000000000000000000000081526004016200016290620003a1565b60405180910390fd5b6200017f600083836200026660201b60201c565b8060026000828254620001939190620003f1565b92505081905550806000808473ffffffffffffffffffffffffffffffffffffffff1673ffffffffffffffffffffffffffffffffffffffff168152602001908152602001600020600082825401925050819055508173ffffffffffffffffffffffffffffffffffffffff16600073ffffffffffffffffffffffffffffffffffffffff167fddf252ad1be2c89b69c2b068fc378daa952ba7f163c4a11628f55a4df523b3ef83604051620002469190620003c3565b60405180910390a362000262600083836200026b60201b60201c565b5050565b505050565b505050565b8280546200027e9062000458565b90600052602060002090601f016020900481019282620002a25760008555620002ee565b82601f10620002bd57805160ff1916838001178555620002ee565b82800160010185558215620002ee579182015b82811115620002ed578251825591602001919060010190620002d0565b5b509050620002fd919062000301565b5090565b5b808211156200031c57600081600090555060010162000302565b5090565b60008151905062000331816200051a565b92915050565b60006020828403121562000350576200034f620004ec565b5b6000620003608482850162000320565b91505092915050565b600062000378601f83620003e0565b91506200038582620004f1565b602082019050919050565b6200039b816200044e565b82525050565b60006020820190508181036000830152620003bc8162000369565b9050919050565b6000602082019050620003da600083018462000390565b92915050565b600082825260208201905092915050565b6000620003fe826200044e565b91506200040b836200044e565b9250827fffffffffffffffffffffffffffffffffffffffffffffffffffffffffffffffff038211156200044357620004426200048e565b5b828201905092915050565b6000819050919050565b600060028204905060018216806200047157607f821691505b60208210811415620004885762000487620004bd565b5b50919050565b7f4e487b7100000000000000000000000000000000000000000000000000000000600052601160045260246000fd5b7f4e487b7100000000000000000000000000000000000000000000000000000000600052602260045260246000fd5b600080fd5b7f45524332303a206d696e7420746f20746865207a65726f206164647265737300600082015250565b62000525816200044e565b81146200053157600080fd5b50565b6080516112b062000550600039600061041901526112b06000f3fe608060405234801561001057600080fd5b50600436106100b45760003560e01c806370a082311161007157806370a08231146101a357806381a4a6d8146101d357806395d89b41146101f1578063a457c2d71461020f578063a9059cbb1461023f578063dd62ed3e1461026f576100b4565b806306fdde03146100b9578063095ea7b3146100d757806318160ddd1461010757806323b872dd14610125578063313ce567146101555780633950935114610173575b600080fd5b6100c161029f565b6040516100ce9190610d71565b60405180910390f35b6100f160048036038101906100ec9190610bbb565b610331565b6040516100fe9190610d56565b60405180910390f35b61010f610354565b60405161011c9190610e73565b60405180910390f35b61013f600480360381019061013a9190610b68565b61035e565b60405161014c9190610d56565b60405180910390f35b61015d61038d565b60405161016a9190610e8e565b60405180910390f35b61018d60048036038101906101889190610bbb565b610396565b60405161019a9190610d56565b60405180910390f35b6101bd60048036038101906101b89190610afb565b6103cd565b6040516101ca9190610e73565b60405180910390f35b6101db610415565b6040516101e89190610e73565b60405180910390f35b6101f961043d565b6040516102069190610d71565b60405180910390f35b61022960048036038101906102249190610bbb565b6104cf565b6040516102369190610d56565b60405180910390f35b61025960048036038101906102549190610bbb565b610546565b6040516102669190610d56565b60405180910390f35b61028960048036038101906102849190610b28565b610569565b6040516102969190610e73565b60405180910390f35b6060600380546102ae90610fa3565b80601f01602080910402602001604051908101604052809291908181526020018280546102da90610fa3565b80156103275780601f106102fc57610100808354040283529160200191610327565b820191906000526020600020905b81548152906001019060200180831161030a57829003601f168201915b5050505050905090565b60008061033c6105f0565b90506103498185856105f8565b600191505092915050565b6000600254905090565b6000806103696105f0565b90506103768582856107c3565b61038185858561084f565b60019150509392505050565b60006012905090565b6000806103a16105f0565b90506103c28185856103b38589610569565b6103bd9190610ec5565b6105f8565b600191505092915050565b60008060008373ffffffffffffffffffffffffffffffffffffffff1673ffffffffffffffffffffffffffffffffffffffff168152602001908152602001600020549050919050565b60007f0000000000000000000000000000000000000000000000000000000000000000905090565b60606004805461044c90610fa3565b80601f016020809104026020016040519081016040528092919081815260200182805461047890610fa3565b80156104c55780601f1061049a576101008083540402835291602001916104c5565b820191906000526020600020905b8154815290600101906020018083116104a857829003601f168201915b5050505050905090565b6000806104da6105f0565b905060006104e88286610569565b90508381101561052d576040517f08c379a000000000000000000000000000000000000000000000000000000000815260040161052490610e53565b60405180910390fd5b61053a82868684036105f8565b60019250505092915050565b6000806105516105f0565b905061055e81858561084f565b600191505092915050565b6000600160008473ffffffffffffffffffffffffffffffffffffffff1673ffffffffffffffffffffffffffffffffffffffff16815260200190815260200160002060008373ffffffffffffffffffffffffffffffffffffffff1673ffffffffffffffffffffffffffffffffffffffff16815260200190815260200160002054905092915050565b600033905090565b600073ffffffffffffffffffffffffffffffffffffffff168373ffffffffffffffffffffffffffffffffffffffff161415610668576040517f08c379a000000000000000000000000000000000000000000000000000000000815260040161065f90610e33565b60405180910390fd5b600073ffffffffffffffffffffffffffffffffffffffff168273ffffffffffffffffffffffffffffffffffffffff1614156106d8576040517f08c379a00000000000000000000000000000000000000000000000000000000081526004016106cf90610db3565b60405180910390fd5b80600160008573ffffffffffffffffffffffffffffffffffffffff1673ffffffffffffffffffffffffffffffffffffffff16815260200190815260200160002060008473ffffffffffffffffffffffffffffffffffffffff1673ffffffffffffffffffffffffffffffffffffffff168152602001908152602001600020819055508173ffffffffffffffffffffffffffffffffffffffff168373ffffffffffffffffffffffffffffffffffffffff167f8c5be1e5ebec7d5bd14f71427d1e84f3dd0314c0f7b2291e5b200ac8c7c3b925836040516107b69190610e73565b60405180910390a3505050565b60006107cf8484610569565b90507fffffffffffffffffffffffffffffffffffffffffffffffffffffffffffffffff8114610849578181101561083b576040517f08c379a000000000000000000000000000000000000000000000000000000000815260040161083290610dd3565b60405180910390fd5b61084884848484036105f8565b5b50505050565b600073ffffffffffffffffffffffffffffffffffffffff168373ffffffffffffffffffffffffffffffffffffffff1614156108bf576040517f08c379a00000000000000000000000000000000000000000000000000000000081526004016108b690610e13565b60405180910390fd5b600073ffffffffffffffffffffffffffffffffffffffff168273ffffffffffffffffffffffffffffffffffffffff16141561092f576040517f08c379a000000000000000000000000000000000000000000000000000000000815260040161092690610d93565b60405180910390fd5b61093a838383610ac7565b60008060008573ffffffffffffffffffffffffffffffffffffffff1673ffffffffffffffffffffffffffffffffffffffff168152602001908152602001600020549050818110156109c0576040517f08c379a00000000000000000000000000000000000000000000000000000000081526004016109b790610df3565b60405180910390fd5b8181036000808673ffffffffffffffffffffffffffffffffffffffff1673ffffffffffffffffffffffffffffffffffffffff16815260200190815260200160002081905550816000808573ffffffffffffffffffffffffffffffffffffffff1673ffffffffffffffffffffffffffffffffffffffff168152602001908152602001600020600082825401925050819055508273ffffffffffffffffffffffffffffffffffffffff168473ffffffffffffffffffffffffffffffffffffffff167fddf252ad1be2c89b69c2b068fc378daa952ba7f163c4a11628f55a4df523b3ef84604051610aae9190610e73565b60405180910390a3610ac1848484610acc565b50505050565b505050565b505050565b600081359050610ae08161124c565b92915050565b600081359050610af581611263565b92915050565b600060208284031215610b1157610b10611033565b5b6000610b1f84828501610ad1565b91505092915050565b60008060408385031215610b3f57610b3e611033565b5b6000610b4d85828601610ad1565b9250506020610b5e85828601610ad1565b9150509250929050565b600080600060608486031215610b8157610b80611033565b5b6000610b8f86828701610ad1565b9350506020610ba086828701610ad1565b9250506040610bb186828701610ae6565b9150509250925092565b60008060408385031215610bd257610bd1611033565b5b6000610be085828601610ad1565b9250506020610bf185828601610ae6565b9150509250929050565b610c0481610f2d565b82525050565b6000610c1582610ea9565b610c1f8185610eb4565b9350610c2f818560208601610f70565b610c3881611038565b840191505092915050565b6000610c50602383610eb4565b9150610c5b82611049565b604082019050919050565b6000610c73602283610eb4565b9150610c7e82611098565b604082019050919050565b6000610c96601d83610eb4565b9150610ca1826110e7565b602082019050919050565b6000610cb9602683610eb4565b9150610cc482611110565b604082019050919050565b6000610cdc602583610eb4565b9150610ce78261115f565b604082019050919050565b6000610cff602483610eb4565b9150610d0a826111ae565b604082019050919050565b6000610d22602583610eb4565b9150610d2d826111fd565b604082019050919050565b610d4181610f59565b82525050565b610d5081610f63565b82525050565b6000602082019050610d6b6000830184610bfb565b92915050565b60006020820190508181036000830152610d8b8184610c0a565b905092915050565b60006020820190508181036000830152610dac81610c43565b9050919050565b60006020820190508181036000830152610dcc81610c66565b9050919050565b60006020820190508181036000830152610dec81610c89565b9050919050565b60006020820190508181036000830152610e0c81610cac565b9050919050565b60006020820190508181036000830152610e2c81610ccf565b9050919050565b60006020820190508181036000830152610e4c81610cf2565b9050919050565b60006020820190508181036000830152610e6c81610d15565b9050919050565b6000602082019050610e886000830184610d38565b92915050565b6000602082019050610ea36000830184610d47565b92915050565b600081519050919050565b600082825260208201905092915050565b6000610ed082610f59565b9150610edb83610f59565b9250827fffffffffffffffffffffffffffffffffffffffffffffffffffffffffffffffff03821115610f1057610f0f610fd5565b5b828201905092915050565b6000610f2682610f39565b9050919050565b60008115159050919050565b600073ffffffffffffffffffffffffffffffffffffffff82169050919050565b6000819050919050565b600060ff82169050919050565b60005b83811015610f8e578082015181840152602081019050610f73565b83811115610f9d576000848401525b50505050565b60006002820490506001821680610fbb57607f821691505b60208210811415610fcf57610fce611004565b5b50919050565b7f4e487b7100000000000000000000000000000000000000000000000000000000600052601160045260246000fd5b7f4e487b7100000000000000000000000000000000000000000000000000000000600052602260045260246000fd5b600080fd5b6000601f19601f8301169050919050565b7f45524332303a207472616e7366657220746f20746865207a65726f206164647260008201527f6573730000000000000000000000000000000000000000000000000000000000602082015250565b7f45524332303a20617070726f766520746f20746865207a65726f20616464726560008201527f7373000000000000000000000000000000000000000000000000000000000000602082015250565b7f45524332303a20696e73756666696369656e7420616c6c6f77616e6365000000600082015250565b7f45524332303a207472616e7366657220616d6f756e742065786365656473206260008201527f616c616e63650000000000000000000000000000000000000000000000000000602082015250565b7f45524332303a207472616e736665722066726f6d20746865207a65726f20616460008201527f6472657373000000000000000000000000000000000000000000000000000000602082015250565b7f45524332303a20617070726f76652066726f6d20746865207a65726f2061646460008201527f7265737300000000000000000000000000000000000000000000000000000000602082015250565b7f45524332303a2064656372656173656420616c6c6f77616e63652062656c6f7760008201527f207a65726f000000000000000000000000000000000000000000000000000000602082015250565b61125581610f1b565b811461126057600080fd5b50565b61126c81610f59565b811461127757600080fd5b5056fea2646970667358221220ae6a6f757a023122b3b348b93955b03f2fda8a3827d9a3fdf15f4e2d26d89a6764736f6c63430008070033",
  "devdoc": {
    "kind": "dev",
    "methods": {
      "allowance(address,address)": {
        "details": "See {IERC20-allowance}."
      },
      "approve(address,uint256)": {
        "details": "See {IERC20-approve}. NOTE: If `amount` is the maximum `uint256`, the allowance is not updated on `transferFrom`. This is semantically equivalent to an infinite approval. Requirements: - `spender` cannot be the zero address."
      },
      "balanceOf(address)": {
        "details": "See {IERC20-balanceOf}."
      },
      "decimals()": {
        "details": "Returns the number of decimals used to get its user representation. For example, if `decimals` equals `2`, a balance of `505` tokens should be displayed to a user as `5.05` (`505 / 10 ** 2`). Tokens usually opt for a value of 18, imitating the relationship between Ether and Wei. This is the default value returned by this function, unless it's overridden. NOTE: This information is only used for _display_ purposes: it in no way affects any of the arithmetic of the contract, including {IERC20-balanceOf} and {IERC20-transfer}."
      },
      "decreaseAllowance(address,uint256)": {
        "details": "Atomically decreases the allowance granted to `spender` by the caller. This is an alternative to {approve} that can be used as a mitigation for problems described in {IERC20-approve}. Emits an {Approval} event indicating the updated allowance. Requirements: - `spender` cannot be the zero address. - `spender` must have allowance for the caller of at least `subtractedValue`."
      },
      "increaseAllowance(address,uint256)": {
        "details": "Atomically increases the allowance granted to `spender` by the caller. This is an alternative to {approve} that can be used as a mitigation for problems described in {IERC20-approve}. Emits an {Approval} event indicating the updated allowance. Requirements: - `spender` cannot be the zero address."
      },
      "name()": {
        "details": "Returns the name of the token."
      },
      "symbol()": {
        "details": "Returns the symbol of the token, usually a shorter version of the name."
      },
      "totalSupply()": {
        "details": "See {IERC20-totalSupply}."
      },
      "transfer(address,uint256)": {
        "details": "See {IERC20-transfer}. Requirements: - `to` cannot be the zero address. - the caller must have a balance of at least `amount`."
      },
      "transferFrom(address,address,uint256)": {
        "details": "See {IERC20-transferFrom}. Emits an {Approval} event indicating the updated allowance. This is not required by the EIP. See the note at the beginning of {ERC20}. NOTE: Does not update the allowance if the current allowance is the maximum `uint256`. Requirements: - `from` and `to` cannot be the zero address. - `from` must have a balance of at least `amount`. - the caller must have allowance for ``from``'s tokens of at least `amount`."
      }
    },
    "version": 1
  },
  "userdoc": {
    "kind": "user",
    "methods": {},
    "version": 1
  },
  "storageLayout": {
    "storage": [
      {
        "astId": 15,
        "contract": "contracts/OurToken.sol:OurToken",
        "label": "_balances",
        "offset": 0,
        "slot": "0",
        "type": "t_mapping(t_address,t_uint256)"
      },
      {
        "astId": 21,
        "contract": "contracts/OurToken.sol:OurToken",
        "label": "_allowances",
        "offset": 0,
        "slot": "1",
        "type": "t_mapping(t_address,t_mapping(t_address,t_uint256))"
      },
      {
        "astId": 23,
        "contract": "contracts/OurToken.sol:OurToken",
        "label": "_totalSupply",
        "offset": 0,
        "slot": "2",
        "type": "t_uint256"
      },
      {
        "astId": 25,
        "contract": "contracts/OurToken.sol:OurToken",
        "label": "_name",
        "offset": 0,
        "slot": "3",
        "type": "t_string_storage"
      },
      {
        "astId": 27,
        "contract": "contracts/OurToken.sol:OurToken",
        "label": "_symbol",
        "offset": 0,
        "slot": "4",
        "type": "t_string_storage"
      }
    ],
    "types": {
      "t_address": {
        "encoding": "inplace",
        "label": "address",
        "numberOfBytes": "20"
      },
      "t_mapping(t_address,t_mapping(t_address,t_uint256))": {
        "encoding": "mapping",
        "key": "t_address",
        "label": "mapping(address => mapping(address => uint256))",
        "numberOfBytes": "32",
        "value": "t_mapping(t_address,t_uint256)"
      },
      "t_mapping(t_address,t_uint256)": {
        "encoding": "mapping",
        "key": "t_address",
        "label": "mapping(address => uint256)",
        "numberOfBytes": "32",
        "value": "t_uint256"
      },
      "t_string_storage": {
        "encoding": "bytes",
        "label": "string",
        "numberOfBytes": "32"
      },
      "t_uint256": {
        "encoding": "inplace",
        "label": "uint256",
        "numberOfBytes": "32"
      }
    }
  }
}